:100000000C948C010C94BD010C94BD010C94BD01A9
:100010000C94BD010C94BD010C94BD010C94BD0168
:100020000C94BD010C94BD010C94BD010C94BD0158
:100030000C94BD010C94F1170C94BD010C94BD01FE
:100040000C94BD010C94BD010C94BD010C94BD0138
:100050000C94BD010C94BD010C94BD010C9461186D
:100060000C94BD010C945E130C9494130C94BD017C
:100070000C94BD010C94BD010C94BD010C94BD0108
:100080000C94BD010C94BD010C94BD010C94BD01F8
:100090000C94BD010C94BD010C94BD010C94B808E6
:1000A0000C94BD010C94BD010C94BD010C94BD01D8
:1000B0000C94BD010C94BD010C94BD010C94BD01C8
:1000C0000C94BD010C94BD010C94BD010C94BD01B8
:1000D0000C94BD010C94BD010C94BD010C94BD01A8
:1000E0000C94BD010C946F1A0C94791A0C948B1A11
:1000F0000C94241A0C94A6190C949E190C94E319D0
:100100000C94D1190C9467060C9464060C94BB07EC
:100110000C94C8130C94061A0C94BF190C949106F5
:100120000C94A11A0C9411120C94611A0C94731A69
:100130000C941F120C947D1A0C9476040C949D1A46
:100140000C94B5190C94D9190C94951A0C946E064C
:100150000C94B9120C94BB060C94811A0C94810671
:100160000C9442120C941A1A0C94A01A0C94691A4A
:100170000C94F6060C94871A0C94381A0C948F1A67
:100180000C94ED190C9433120C9405120C949912E2
:100190000C94BE130C94AB190C94F5130C949006AC
:1001A0000C94C9190C94991A0C94101A0C94651A91
:1001B0000C942E1A0C945B1A0C94F7190C94C70625
:1001C0000200000B0C030A0D0E0F090804050200C3
:1001D000000000000000000000000000000000001F
:1001E00000000000000000000000000000131211D9
:1001F00000000000000000000000000000000000FF
:1002000000000000000000000000000000000000EE
:10021000000000000000000102102020080810204B
:100220004010204080020102010804020101020482
:100230000810204080804020100804020180040241
:100240000180402010080402010804020101020498
:1002500008102040800102040810204080044080E3
:100260000480081010204004081020408005050577
:1002700005070508080808020202020A0A0808041D
:10028000040404010101010101010103030303034B
:10029000030303040707070C0C0C0C0C0C0C0C02DA
:1002A00002020206060606060606060B0B0B0B0BE1
:1002B0000B0B0B050505080807070404040A0A0AC6
:1002C0000A0A0A000020002300260029002C002F23
:1002D00000320000010000030106010901000022B4
:1002E00000250028002B002E003100340002010000
:1002F00000050108010B0100002100240027002A4D
:10030000002D003000330001010000040107010A44
:1003100001007604BB07C81311241FBECFEFD1E242
:10032000DEBFCDBF00E00CBF12E0A0E0B2E0E6E728
:10033000FAE300E00BBF02C007900D92AE35B107A3
:10034000D9F724E0AEE5B2E001C01D92A036B207B5
:10035000E1F711E0CCE8D1E000E006C02197010907
:10036000802FFE010E94171DC938D10780E00807C1
:10037000A9F70E9452180C94391D0C94000061E0FA
:100380008DE00E94A41A61E08FE10E94A41A60E04F
:100390008EE10E94A41A61E089E00E94A41A61E043
:1003A0008AE00E94A41A61E087E00E94A41A61E03A
:1003B00086E00E94A41A61E088E00E94A41A60E02E
:1003C00089E00E94E01A60E08AE00E94E01A60E0A2
:1003D00087E00E94E01A60E086E00E94E01A60E098
:1003E00088E00E94E01A64EF71E080E090E00E94F3
:1003F000DC188AEE92E00E94230726E040E855E2EE
:1004000060E070E080E993E00E94061361E089E01B
:100410000E94E01A66E970E080E090E00E94DC183B
:1004200061E072E080E993E00E94351461E08CEDB8
:1004300092E00E94500F64E072E080E993E00E9435
:10044000351464E670E080E090E00E94DC1861E022
:100450008CED92E00E941D0A67E072E080E993E073
:100460000E94351461E08AE00E94E01A66E970E0BB
:1004700080E090E00E94DC1861E08EEC92E00E9447
:10048000500F6AE072E080E993E00E94351464E660
:1004900070E080E090E00E94DC1862E08EEC92E078
:1004A0000E941D0A6DE072E080E993E00E9435141D
:1004B00061E087E00E94E01A66E970E080E090E089
:1004C0000E94DC1861E080EC92E00E94500F60E135
:1004D00072E080E993E00E94351464E670E080E009
:1004E00090E00E94DC1863E080EC92E00E941D0A1C
:1004F00063E172E080E993E00E94351461E086E0F8
:100500000E94E01A66E970E080E090E00E94DC184A
:1005100066E172E080E993E00E94351461E082EBCD
:1005200092E00E94500F69E172E080E993E00E943E
:10053000351464E670E080E090E00E94DC1864E02E
:1005400082EB92E00E941D0A6CE172E080E993E088
:100550000E94351461E088E00E94E01A66E970E0CC
:1005600080E090E00E94DC186FE172E080E993E0A7
:100570000E94351461E084EA92E00E94500F62E22A
:1005800072E080E993E00E94351464E670E080E058
:1005900090E00E94DC1865E084EA92E00E941D0A67
:1005A00065E272E080E993E00E94351468E272E04F
:1005B00080E993E00E94351440E050E0BA018CEDF0
:1005C00092E00E94AE0B40E050E0BA018EEC92E067
:1005D0000E94AE0B40E050E0BA0180EC92E00E9435
:1005E000AE0B40E050E0BA0182EB92E00E94AE0B0D
:1005F00040E050E0BA0184EA92E00E94AE0B63E072
:1006000070E08EE792E00E94F90563E070E08EE50D
:1006100092E00E94F90588E790E090939F02809312
:100620009E0208950F931F93CF93DF938EE10E9454
:100630000E1B019709F055C168EE73E080E090E071
:100640000E94DC18CAEBDFEF0EE71FEF80EC92E0B0
:100650000E94FD0B9093A3028093A20282EB92E092
:100660000E94FD0B9093A1028093A0028A35910510
:100670000CF570E060E08EE792E00E94F90570E012
:1006800060E08EE592E00E94F90580919E029091D3
:100690009F02BE01681B790B8EE792E00E94510514
:1006A00060919E0270919F0262597F4F8EE592E0A9
:1006B0000E9451058091A0029091A1028B35910575
:1006C0000CF170E060E08EE792E00E94F90570E0C6
:1006D00060E08EE592E00E94F90580919E02909183
:1006E0009F02B801681B790B8EE792E00E945105CA
:1006F00060919E0270919F02685D7F4F8EE592E04F
:100700000E9451058091A2029091A3028C3891051C
:100710000CF06FC028EC30E040E050E060ED77E096
:100720008FE10E944C1470E060E08EE792E00E943E
:10073000F90570E060E08EE592E00E94F90568EC52
:1007400070E08EE792E00E94510568E37FEF8EE54E
:1007500092E00E94510564E670E080E090E00E9423
:10076000DC1870E060E08EE792E00E94F90570E02E
:1007700060E08EE592E00E94F90568EC70E08EE79B
:1007800092E00E94510568EC70E08EE592E00E94D4
:10079000510564E670E080E090E00E94DC1863E0C0
:1007A00070E08EE792E00E94F90563E070E08EE56C
:1007B00092E00E94F90570E060E08EE792E00E940E
:1007C000F90570E060E08EE592E00E94F90568E8C6
:1007D0007FEF8EE792E00E94510568E770E08EE5BA
:1007E00092E00E94510564E670E080E090E00E9493
:1007F000DC188091A0029091A1028B3F91050CF42E
:1008000025CF63E070E08EE792E00E94F90563E097
:1008100070E08EE592E00E94F90568EC70E080E0FF
:1008200090E00E94DC1868E87FEF8EE792E00E947B
:10083000510568E770E08EE592E00E94510564E69C
:1008400070E080E090E00E94DC1828EC30E040E0AE
:1008500050E060ED77E08FE10E944C1463E070E0BF
:100860008EE792E00E94F90563E070E08EE592E089
:100870000E94F90568EC70E080E090E00E94DC18CE
:1008800070E060E08EE792E00E94F90570E060E0C1
:100890008EE592E00E94F90568E37FEF8EE792E033
:1008A0000E94510568E37FEF8EE592E00E945105BA
:1008B0006CE870E080E090E00E94DC1868E87FEF70
:1008C0008EE792E00E94510568E770E08EE592E0C5
:1008D0000E94510566E970E080E090E00E94DC181B
:1008E000B5CEDF91CF911F910F910895EF920F93A5
:1008F0008CED92E00E94E8098EEC92E00E94E809FB
:1009000080EC92E00E94E80982EB92E00E94E80904
:1009100084EA92E00E94E809EE24EA9401E023E0F0
:1009200042E061E070E08EE792E00E94060625E07A
:1009300044E061E070E08EE592E00E9406060F91CF
:10094000EF900895FF920F931F93CF93DF93EC01E5
:10095000F42E890188858F3F11F00E94E01A898565
:100960008F3F19F06F2D0E94E01A8A858F3F41F06A
:10097000B801DF91CF911F910F91FF900C946619F0
:10098000DF91CF911F910F91FF900895EF92FF9209
:100990000F931F93CF93DF93EC018B017A018D8925
:1009A0009E89892BB1F089899A898617970789F0E2
:1009B0007A8B698B61E08C85811101C060E030E049
:1009C00020E0462FCE010E94A2048D899E890E94BC
:1009D00015198B85882331F00115110531F101308E
:1009E000110591F00130110501F170F0023011058F
:1009F00009F445C00330110589F1DF91CF911F91B2
:100A00000F91FF90EF9008958C8541E0811140E0B7
:100A100061E0811101C060E09701CE010E94A20453
:100A200081E090E09F838E83E8CF8B899C8901973A
:100A300031F48D859E859C012E193F0979018C85A5
:100A400041E0811101C040E061E0811160E0970167
:100A5000CE010E94A2048FEF9FEFE4CF8C8530E09F
:100A600020E0811102C02FEF30E061E0811160E0F1
:100A7000462FCE010E94A2041F821E82BECF2C856B
:100A800061E0211101C060E04FEF240390011124C7
:100A9000462FCE010E94A2041B821A82198218825C
:100AA000EBCF8F929F92AF92BF92EF92FF920F93F4
:100AB0001F93CF93DF93EC010F8518890230110546
:100AC0000CF08CC08D859E8522273327281B390B7F
:100AD000621773072CF09C01681779070CF49B01CF
:100AE000398328838F3F910579F074F0C90137FF6E
:100AF00004C088279927821B930B8F3F910521F40F
:100B00002F5F3F4F398328836115710589F450E0C9
:100B100040E062E070E0CE01DF91CF911F910F9134
:100B2000FF90EF90BF90AF909F908F900C94C60471
:100B30009B01EC80FD8068817981121613062CF5EB
:100B4000E114F104F1F0072E000C880B990B0E94C0
:100B5000DD1B2C8D3D8D4E8D5F8D0E94691C4B01E0
:100B60005C01B701FF0C880B990B0E94DD1B9B01F8
:100B7000AC01C501B4010E94391B0E94A51B7983F9
:100B8000688348815981B801C6CFE114F104F1F0BE
:100B9000072E000C880B990B0E94DD1B2C8D3D8DC0
:100BA0004E8D5F8D0E94691C4B015C01B701FF0CEB
:100BB000880B990B0E94DD1B9B01AC01C501B401A0
:100BC0000E94381B0E94A51B798368834881598144
:100BD00051954195510961E070E09DCFDF91CF9132
:100BE0001F910F91FF90EF90BF90AF909F908F90CB
:100BF0000895FC01278530892617370731F0708B5F
:100C00006787408151810C94C6040895EF920F9339
:100C1000CF93DF93EC01198218821B821A821D8206
:100C20001C821F821E828FEF888789878A871B8696
:100C30001C868FEF90E09E878D87188A1F861A8A00
:100C4000198A1E8A1D8A84E18F8B188E198E1A8E3E
:100C50001B8E7C8B6B8B6230710541F1F0F0633041
:100C6000710579F188858F3F19F061E00E94A41A1F
:100C700089858F3F19F061E00E94A41A8A858F3F11
:100C800019F061E00E94A41A62E070E0CE01DF91E9
:100C9000CF910F91EF900C94F90548872A870F3F69
:100CA00009F381E0002359F080E009C048872987D3
:100CB0000A878FEFE816B1F281E0E110F5CF8C875B
:100CC000D1CF48872987EBCF90E080E008958091CD
:100CD0001E0390911F03891B990B089590911F0388
:100CE00080911E032FEF3FEF981748F4E92FF0E0B3
:100CF000E05EFC4F208130E09F5F90931F03C901AD
:100D00000895E0911F0380911E03E81730F4F0E08E
:100D1000E05EFC4F808190E008958FEF9FEF089593
:100D20000895CF93DF93EC01E091F602F091F70282
:100D30003097F1F090911F0380911E039817C0F037
:100D400090E0292F30E02617370754F4DE01A20F78
:100D5000B31F4C91205E3C4FD9014C939F5FF1CF64
:100D600010921F0360931E03CB01DF91CF91199462
:100D7000DF91CF910895E091F802F091F902309758
:100D800029F01092FC021092FB0219940895CF935F
:100D9000DF931F92CDB7DEB769832091FA02222339
:100DA000F9F02091FB02203258F021E030E0FC0104
:100DB0003383228390E080E00F90DF91CF910895FC
:100DC0008091FC02E82FF0E0E350FD4F9981908381
:100DD0008F5F8093FC028093FB0281E090E0ECCF78
:100DE00061E0CE0101960E947708F7CFCF92DF92A3
:100DF000EF92FF920F931F93CF93DF937C01CB0170
:100E00008A012091FA02222389F0EB016B01C40EC2
:100E1000D51ECC15DD0569F06991D701ED91FC91E6
:100E20000190F081E02DC7011995F3CF642F0E9446
:100E30007708C801DF91CF911F910F91FF90EF903C
:100E4000DF90CF90089510921F0310921E0310920E
:100E5000FC021092FB020E94CC078BEB96E00E94F2
:100E6000A30881E996E00C949E0881E08093FA0241
:100E700060931D031092FC021092FB0208950F93E1
:100E8000062F21E04091FB026DEF72E080911D037F
:100E90000E9427081092FC021092FB021092FA02A4
:100EA0000F9108954F925F926F927F92AF92BF928F
:100EB000CF92EF92FF920F931F93CF93DF935C013A
:100EC000F62ED42F28013901EE2019F10E943507A2
:100ED000CE2DC43008F0C3E0C150B8F028E0C29F66
:100EE000C0011124A301920104C05695479537957E
:100EF00027958A95D2F7B901D501ED91FC91019022
:100F0000F081E02DC5011995E7CF60E0C5010E9491
:100F10003F074D2FD13208F040E22C2D60E273E004
:100F20008F2D0E94E70710921F0380931E03DF910D
:100F3000CF911F910F91FF90EF90CF90BF90AF9006
:100F40007F906F905F904F900895CF92EF920F93A4
:100F50001F93C22EE12C00E010E098010E9452077E
:100F60001F910F91EF90CF90089521E00C94A50769
:100F700061E00C943F07EAEEF2E01382128288EE01
:100F800093E0A0E0B0E084839583A683B7838AE3EF
:100F900092E091838083089510928F0381E0809383
:100FA0008D0310928C0361E084E10E94E01A61E0FD
:100FB00085E10E94E01AE9EBF0E080818C7F80837C
:100FC00088E48093B80085E48093BC0008954132A2
:100FD000E0F590918F039111FCCF91E090938F03F6
:100FE00020938D032FEF209340037093870360932A
:100FF000860310928503240F2093840390938E031D
:1010000090918E03880F892B80938E0380918C039F
:101010008130C9F410928C0380918E038093BB00C1
:101020008091BC0083FDF8CF85EC8093BC0080915B
:101030008F038130E1F380918503841710F4409190
:101040008503842F089585EEF0CF40E0FACF0F930B
:10105000413208F044C090918F039111FCCF92E08F
:1010600090938F0300938D039FEF909340037093B1
:101070008703609386031092850340938403109244
:101080008E0390918E03880F892B80938E0380911D
:101090008C03813011F510928C0380918E03809324
:1010A000BB008091BC0083FDF8CF85EC8093BC0031
:1010B000222321F080918F038230D1F3809140036D
:1010C0008F3F79F080914003803269F08091400336
:1010D000803359F084E00F91089585EEE7CF81E0E9
:1010E000FACF80E0F8CF82E0F6CF83E0F4CF209112
:1010F0006203260F3327331F21323105ECF4209190
:101100008F03FC0190E080E0243069F082E00895D4
:10111000A09162032191AC014C595C4FA40FB52FF3
:10112000B11D2C930196861798F380916203680F86
:101130006093620380E0089581E0089590938903AD
:1011400080938803089590938B0380938A03089576
:1011500085ED8093BC008091BC0084FDFCCF109293
:101160008F03089585EC8093BC0010928F0308953F
:101170001F920F920FB60F9211240BB60F922F935E
:101180003F934F935F936F937F938F939F93AF930F
:10119000BF93EF93FF938091B900887F803609F465
:1011A0004EC008F041C0883209F4AAC028F5803149
:1011B00009F49EC0C8F4882309F407C1883009F4F3
:1011C00097C0FF91EF91BF91AF919F918F917F91C8
:1011D0006F915F914F913F912F910F900BBE0F90A8
:1011E0000FBE0F901F901895883109F489C0803286
:1011F00041F78093400315C0803409F4A6C048F439
:101200008033B9F38833E9F6809340030E94B20833
:10121000D8CF803509F489C0883509F49EC0883458
:1012200081F60E94A808CDCF883909F494C038F51A
:10123000883729F050F4883611F0803711F683E0B2
:1012400080938F031092410357C0883809F483C0FC
:10125000803919F0803809F0B4CF80914103803291
:1012600008F079C0E091410381E08E0F8093410343
:101270008091BB00F0E0EE5BFC4F80833DC0803B83
:1012800039F0E0F4803A09F485C0883A09F099CF42
:1012900084E080938F031092630310926203E091C5
:1012A0008A03F0918B0319958091620381110FC01D
:1012B00081E0809362031092640309C0803C09F4CA
:1012C00082C0883C09F47FC0883B09F07ACFE09166
:1012D000630381E08E0F80936303F0E0EC59FC4FD1
:1012E00080818093BB00909163038091620331C041
:1012F00080918E038093BB0085EC8093BC0061CF0E
:1013000090918503809184039817B8F580918603A6
:1013100090918703E091850321E02E0F20938503B0
:10132000E80FF92FF11D8081E5CF209186033091E0
:101330008703E091850381E08E0F80938503809180
:10134000BB00E20FF32FF11D808390918503809104
:101350008403981788F285E8D0CF209186033091D6
:101360008703E091850381E08E0F80938503809150
:10137000BB00E20FF32FF11D808380918D0381115B
:1013800050CF81E080938C0384EA8093BC0010925C
:101390008F0317CF0E94B20880914103803230F44E
:1013A000E0914103F0E0EE5BFC4F1082609141035D
:1013B00070E0E0918803F091890382E493E019954D
:1013C00010924103FECE85ECE0CF1092400329CF6E
:1013D000FC018AEE92E09283818389E28383158205
:1013E0001482168208950F931F93CF93DF93EC011D
:1013F000062F142F6B8189819A810E94350789817C
:101400009A81DC01ED91FC910190F081E02D602F3B
:10141000199589819A81DC01ED91FC910190F0810F
:10142000E02D612F199589819A810E94B8078883E0
:10143000DF91CF911F910F9108951F93CF93DF9369
:10144000EC01162F462F4F776AE80E94F3091B83A1
:10145000DF91CF911F910895FF920F931F93CF9328
:10146000DF93EC01F62E142F052F6B8189819A8171
:101470000E94350789819A81DC01ED91FC910190F0
:10148000F081E02D6F2D199589819A81DC01ED9114
:10149000FC910190F081E02D602F199589819A814E
:1014A000DC01ED91FC910190F081E02D612F199507
:1014B00089819A810E94B8078883DF91CF911F911B
:1014C0000F91FF900895CF92DF92EF92FF921F93BA
:1014D000CF93DF93EC01162F69017A016B8189812B
:1014E0009A810E94350789819A81DC01ED91FC91F6
:1014F0000190F081E02D612F1995A981BA816F2D9E
:10150000772788279927ED91FC9111970190F08119
:10151000E02DCD011995A981BA81B70188279927B6
:10152000ED91FC9111970190F081E02DCD0119957D
:10153000A981BA8199278F2D7E2D6D2DED91FC917A
:1015400011970190F081E02DCD01199589819A8143
:10155000DC01ED91FC910190F081E02D6C2D19954D
:1015600089819A810E94B8078883DF91CF911F916A
:10157000FF90EF90DF90CF9008951F93CF93DF936C
:10158000EC01162F6B8189819A810E943507898130
:101590009A81DC01ED91FC910190F081E02D612FA9
:1015A000199589819A810E94B807888341E06B81EF
:1015B00089819A810E94B50789819A81DC01ED9128
:1015C000FC910284F385E02D1995DF91CF911F9155
:1015D00008950F931F93CF93DF93EC01162F6B8128
:1015E00089819A810E94350789819A81DC01ED9178
:1015F000FC910190F081E02D612F199589819A81EC
:101600000E94B807888342E06B8189819A810E9499
:10161000B50789819A81DC01ED91FC910284F38503
:10162000E02D199500E0182F89819A81DC01ED9158
:10163000FC910284F385E02D1995802B912BDF918D
:10164000CF911F910F910895DF92EF92FF920F9328
:101650001F93CF93DF93EC01162FD42EE52EF22E9D
:101660006B8189819A810E94350789819A81DC0189
:10167000ED91FC910190F081E02D612F19950D2DD8
:101680001E2DFA9489819A81BFEFFB1659F0F8015B
:1016900061918F01DC01ED91FC910190F081E02DD1
:1016A0001995EFCF0E94B8078883DF91CF911F91E2
:1016B0000F91FF90EF90DF900895DF92EF92FF92ED
:1016C0000F931F93CF93DF93EC01162FD42EE52EAB
:1016D000F22E6B8189819A810E94350789819A81D6
:1016E000DC01ED91FC910190F081E02D612F1995C5
:1016F00089819A810E94B80788834F2D6B818981E7
:101700009A810E94B5070D2D1E2DFA94BFEFFB168E
:1017100069F089819A81DC01ED91FC910284F38565
:10172000E02D1995F80181938F01EFCFDF91CF91D3
:101730001F910F91FF90EF90DF9008956115710553
:1017400031F460E50E94BD0A8F5F880F0895613013
:10175000710511F460E7F6CF8FEF0895CF92DF9215
:10176000EF92FF92CF93DF93EC016A017B0141E09E
:1017700060E80E94F30941E06FEFCE010E94F30997
:1017800040E060E0CE010E94F309498561E9CE01A5
:101790000E94F30941E060E0CE010E94F30940E0BD
:1017A0006FEFCE010E94F30940E060E8CE010E9495
:1017B000F30942E0C114D104E104F104A1F068EF9F
:1017C000CE010E94E90A009739F0DC01A7019601D9
:1017D0000E941F1D6B017C01A701960164E0CE01F0
:1017E0000E94630A44E060E0CE01DF91CF91FF9058
:1017F000EF90DF90CF900C94F3090F931F93CF934A
:10180000DF93EC010E94AB1878876F8363E1CE0110
:101810000E94BD0A8770C9F48C819D81892BB1F328
:101820000E94AB182F813885621B730B8C819D81C0
:101830008617970758F781E08E830FEF1FEFC801D7
:10184000DF91CF911F910F9108956EE1CE010E941B
:10185000E90A8C0141E06BE0CE010E94F309EFCF71
:10186000EF92FF920F931F93CF93DF93EC017B01D5
:101870008A0141E060E80E94F30941E06FEFCE0188
:101880000E94F30940E060E0CE010E94F30946E0C7
:101890006FEFCE010E94F30963E8CE010E94BD0AFA
:1018A000482F446063E8CE010E94F30947E06FEFE0
:1018B000CE010E94F30941E061E8CE010E94F309E4
:1018C00041E060E8CE010E94F3094BE664E9CE01F5
:1018D0000E94F30940E063E8CE010E94F3090E94F0
:1018E000AB1878876F8363E8CE010E94BD0A81112F
:1018F00011C08C819D81892BB1F30E94AB182F817F
:101900003885621B730B8C819D818617970758F76A
:1019100080E03BC041E063E8CE010E94F30962E948
:10192000CE010E94BD0A982F9F77F7019083881FF0
:101930008827881FF801808340E061E8CE010E947B
:10194000F30946E06FEFCE010E94F30963E8CE0190
:101950000E94BD0A482F4B7F63E8CE010E94F30925
:1019600041E06FEFCE010E94F30941E060E0CE015B
:101970000E94F30940E06FEFCE010E94F30940E0BE
:1019800060E8CE010E94F30981E0DF91CF911F91C1
:101990000F91FF90EF900895CF93DF93EB0161E0FB
:1019A0000E94BD0A84FB992790F9988383FB9927AD
:1019B00090F99A8382FB992790F9998386FB99275E
:1019C00090F99B83881F8827881F8C83DF91CF9194
:1019D00008959C013327A90102C0440F551F9A9511
:1019E000E2F7CA0101960895CF92DF92EF92FF923B
:1019F0006115710581059105F1F0DC01CB010197BD
:101A0000A109B10930E020E06C017D01CC24CD2892
:101A1000CE28CF2839F0B695A795979587952F5F53
:101A20003F4FF2CF322F2227822B932BFF90EF9044
:101A3000DF90CF90089590E080E0F8CFCF92DF92D2
:101A4000EF92FF92CF93DF93EC01A62FB0E020E05E
:101A50003FE24AE350E00E941F1D6C507E4F8F4FC3
:101A60009F4F28EEC22E23E0D22EE12CF12CA701AD
:101A700096010E94D61CDE010E941F1D6C507E4FF5
:101A80008F4F9F4FA70196010E94D61CCA01B90132
:101A9000DF91CF91FF90EF90DF90CF900895EF927C
:101AA000FF920F931F93CF93DF938C017B01EA0189
:101AB00070E060E00E949E0B90E09983888366E46A
:101AC000C8010E94BD0A90E001969D838C836881C5
:101AD0000E941E0D6A877B878C879D8761E5C80100
:101AE0000E94E90A0E94E90C9F838E8368810E940C
:101AF0001E0D6E877F87888B998B60E7C8010E94D7
:101B0000BD0A8F5F880F90E09B838A8361E7C801DD
:101B10000E94E90A0E94E90C99878887F7012381CE
:101B2000222331F02E813F81821B930B9987888776
:101B30006A81888599850E941E0D6A8B7B8B8C8BB0
:101B40009D8BDF91CF911F910F91FF90EF900895A2
:101B5000CF92DF92EF92FF920F931F93CF93DF9379
:101B6000CDB7DEB76B970FB6F894DEBF0FBECDBF13
:101B70008C01BE01695E7F4F0E94CC0CAE014F5FAD
:101B80005F4FBE01695E7F4FC8010E944F0D8F8974
:101B9000882309F454C06B857C858D859E856C57A0
:101BA000724F8F4F9F4F298D222309F44DC0CB8454
:101BB000DC84ED84FE8422EBC20E22E0D21EE11C06
:101BC000F11CCC0CDD1CEE1CFF1C6C0D7D1D8E1D54
:101BD0009F1D2A8D222371F0CF84D888E988FA8846
:101BE000F4E9CF0EF2E0DF1EE11CF11C6C0D7D1D4F
:101BF0008E1D9F1D2B8D222371F0CB88DC88ED88F4
:101C0000FE8826E2C20E22E0D21EE11CF11C6C0D01
:101C10007D1D8E1D9F1DF8016287738784879587C0
:101C20006B960FB6F894DEBF0FBECDBFDF91CF919C
:101C30001F910F91FF90EF90DF90CF90089566E392
:101C40007BE080E090E0AFCF288D222311F2CB849F
:101C5000DC84ED84FE84E4E9CE0EE2E0DE1EE11CCD
:101C6000F11CB3CF8F929F92AF92BF92CF92DF922F
:101C7000EF92FF924B015C01A42FB0E020E03FE225
:101C80004AE350E00E941F1D6B017C0124EFC20E4D
:101C900021E0D21EE11CF11CA8EEB3E0A5019401E5
:101CA0000E941F1D4B015C01C701B60120ED37E00A
:101CB00040E050E00E94D61C820E931EA41EB51E6A
:101CC000C701B60128EE33E040E050E00E94D61C88
:101CD000C501B4010E94D61CCA01B901FF90EF9062
:101CE000DF90CF90BF90AF909F908F900895AF926C
:101CF000BF92CF92DF92EF92FF920F931F93CF93F9
:101D0000DF93CDB7DEB76B970FB6F894DEBF0FBE8B
:101D1000CDBF8C016A017B01BE01695E7F4F0E94CD
:101D2000CC0CAE014F5F5F4FBE01695E7F4FC801B3
:101D30000E944F0D8F89882309F46AC08B859C858A
:101D4000AD85BE858C57924FAF4FBF4F298D222353
:101D500009F463C04B855C856D857E854E545D4F6F
:101D60006F4F7F4F440F551F661F771F840F951FBE
:101D7000A61FB71FAA8CAA2061F04F8558896989D0
:101D80007A894C565D4F6F4F7F4F840F951FA61F6A
:101D9000B71FBB8CBB2009F44DC08A5D9D4FAF4F70
:101DA000BF4FC816D906EA06FB0608F446C0A701CD
:101DB0009601281B390B4A0B5B0BCA01B9014B81F9
:101DC0000E94320EAA2031F02F813885620F731FD6
:101DD000811D911D0E94F40CAC0161E7C8010E94B5
:101DE0002C0AF801C286D386E486F5868B2D6B9685
:101DF0000FB6F894DEBF0FBECDBFDF91CF911F911C
:101E00000F91FF90EF90DF90CF90BF90AF9008952B
:101E100086E39BE0A0E0B0E099CF288D222309F46F
:101E2000A9CF4B855C856D857E854C565D4F6F4F88
:101E30007F4F9CCFBB24B394D9CFB12CD7CFCF93B6
:101E4000DF93EC01462F416060E00E94F3090E949D
:101E5000AB1878876F8363E1CE010E94BD0A87705B
:101E600089F48C819D81892BB1F30E94AB182F815D
:101E70003885621B730B8C819D818617970758F7F5
:101E800080E00BC041E06BE0CE010E94F30940E02E
:101E900060E0CE010E94F30981E0DF91CF910895C7
:101EA000EF92FF920F931F93CF93DF9300D000D058
:101EB0001F921F92CDB7DEB78C01F62E60EC0E9408
:101EC000BD0A8E3E79F0F12C8F2D28960FB6F8942E
:101ED000DEBF0FBECDBFDF91CF911F910F91FF905D
:101EE000EF900895FF2051F069E8C8010E94BD0AF3
:101EF000482F416069E8C8010E94F30940E068E8A2
:101F0000C8010E94F30941E060E8C8010E94F3099A
:101F100041E06FEFC8010E94F30940E060E0C801B2
:101F20000E94F30961E9C8010E94BD0AF801818796
:101F300041E060E0C8010E94F30940E06FEFC80192
:101F40000E94F30940E060E8C8010E94F30960E6DE
:101F5000C8010E94BD0A482F426160E6C8010E9484
:101F6000F30940E250E064E4C8010E942C0A4FEFFC
:101F700061E0C8010E94F309AE01495F5F4FBE01F5
:101F8000685F7F4FC8010E94300C882309F49BCF03
:101F900026E0AE014F5F5F4F60EBC8010E945D0B12
:101FA00041E06FEFC8010E94F30940E06FE4C8010F
:101FB0000E94F3094CE26EE4C8010E94F30940E07C
:101FC0006FEFC8010E94F30944EB66EBC8010E9461
:101FD000F3098F81ACE0811101C0A0E0B88580E0F9
:101FE00090E0EE24E394F12C482F469546954695D3
:101FF00050E021E030E02C0F3D1F240F351FF90188
:102000002081682F67708A1710F0B913F4C1E1E0DE
:10201000F0E0EC0FFD1F4E0F5F1FF70102C0EE0F47
:10202000FF1F6A95E2F7BF0160952623FA0120831E
:102030008F5F8033C9F626E0AE014F5F5F4F60EBE4
:10204000C8010E94240B41E06FEFC8010E94F30910
:1020500040E060E0C8010E94F30940E06FEFC80172
:102060000E94F30940E069E0C8010E94F30940E0E2
:1020700060E1C8010E94F30940E061E1C8010E94EB
:10208000F30941E064E2C8010E94F3094FEF65E201
:10209000C8010E94F30940E065E7C8010E94F30906
:1020A00041E06FEFC8010E94F3094CE26EE4C80101
:1020B0000E94F30940E068E4C8010E94F30940E28D
:1020C00060E3C8010E94F30940E06FEFC8010E947D
:1020D000F30949E060E3C8010E94F30940E064E5C8
:1020E000C8010E94F30944E061E3C8010E94F309BA
:1020F00043E062E3C8010E94F30943E860E4C801D9
:102100000E94F30945E266E4C8010E94F30940E039
:1021100060E6C8010E94F30940E067E2C8010E943E
:10212000F30946E060E5C8010E94F30940E061E57B
:10213000C8010E94F30946E962E5C8010E94F3095B
:1021400048E066E5C8010E94F30940E367E5C8017D
:102150000E94F30940E061E6C8010E94F30940E0F3
:1021600062E6C8010E94F30940E064E6C8010E94EB
:10217000F30940E065E6C8010E94F30940EA66E61B
:10218000C8010E94F30941E06FEFC8010E94F30902
:1021900042E362E2C8010E94F30944E167E4C80136
:1021A0000E94F3094FEF69E4C8010E94F30940E07F
:1021B0006AE4C8010E94F30940E06FEFC8010E9481
:1021C000F3094AE06AE7C8010E94F30940E06BE7BF
:1021D000C8010E94F30941E268E7C8010E94F309BF
:1021E00041E06FEFC8010E94F30944E363E2C801D4
:1021F0000E94F30940E062E4C8010E94F3094FEF36
:1022000064E4C8010E94F30946E265E4C8010E9443
:10221000F30945E066E4C8010E94F30940E460E484
:10222000C8010E94F30946E06EE0C8010E94F3096C
:102230004AE160E2C8010E94F30940E463E4C80196
:102240000E94F30940E06FEFC8010E94F30943E0E8
:1022500064E3C8010E94F30944E465E3C8010E94F5
:10226000F30941E06FEFC8010E94F30944E061E324
:10227000C8010E94F30949E06BE4C8010E94F30918
:1022800045E06CE4C8010E94F30944E06DE4C80134
:102290000E94F30940E06FEFC8010E94F30940E09B
:1022A00064E4C8010E94F30940E265E4C8010E94A9
:1022B000F30948E067E4C8010E94F30948E268E4D2
:1022C000C8010E94F30940E067E6C8010E94F309D3
:1022D00044E060E7C8010E94F30941E061E7C801FA
:1022E0000E94F3094EEF62E7C8010E94F30940E043
:1022F00066E7C8010E94F30940E067E7C8010E9451
:10230000F30941E06FEFC8010E94F30941E06DE07D
:10231000C8010E94F30940E06FEFC8010E94F30971
:1023200041E060E8C8010E94F30948EF61E0C8019C
:102330000E94F30941E06FEFC8010E94F30941E0F8
:102340006EE8C8010E94F30941E060E0C8010E9404
:10235000F30940E06FEFC8010E94F30940E060E834
:10236000C8010E94F30944E06AE0C8010E94F30931
:1023700064E8C8010E94BD0A482F4F7E64E8C80186
:102380000E94F30941E06BE0C8010E94F309C80113
:102390000E94A80DF801628773878487958748EEAD
:1023A00061E0C8010E94F309F80142855385648504
:1023B0007585C8010E94770E41E061E0C8010E9466
:1023C000F30960E4C8010E941F0F882309F47BCD44
:1023D00042E061E0C8010E94F30960E0C8010E9488
:1023E0001F0FF82E882309F46ECD48EE61E0C80176
:1023F0000E94F30969CD30E002C0359527956A95B2
:10240000E2F720FF15CE9F5F13CEFC01918D228D48
:10241000892F90E0805C9F4F821B91098F739927D1
:102420000895FC01918D828D981731F0828DE80F0F
:10243000F11D858D90E008958FEF9FEF0895FC01C9
:10244000918D828D981761F0A28DAE0FBF2FB11DB7
:102450005D968C91928D9F5F9F73928F90E008950F
:102460008FEF9FEF0895FC01538D448D252F30E0B1
:10247000842F90E0821B930B541710F0CF96089591
:10248000019708958EEB93E1892B49F080E090E06D
:10249000892B29F00E94BE1381110E94000080E068
:1024A00090E0892B49F080E090E0892B29F00E9490
:1024B000000081110E94000080E090E0892B49F02B
:1024C00080E090E0892B29F00E94000081110E9499
:1024D000000080E090E0892B49F080E090E0892BBB
:1024E00029F00E94000081110C9400000895FC0165
:1024F000A48DA80FB92FB11DA35ABF4F2C91848D65
:1025000090E001968F739927848FA689B7892C93C1
:10251000A089B1898C91837080648C93938D848D14
:10252000981306C00288F389E02D80818F7D808317
:102530000895CF93DF93EC01888D8823B9F0AA89A1
:10254000BB89E889F9898C9185FD03C0808186FD6E
:102550000DC00FB607FCF7CF8C9185FFF2CF8081BD
:1025600085FFEDCFCE010E947712E9CFDF91CF91A9
:102570000895EF92FF920F931F93CF93DF93EC0197
:1025800081E0888F9B8D8C8D98131AC0E889F9891A
:10259000808185FF15C09FB7F894EE89FF8960831D
:1025A000E889F98980818370806480839FBF81E09E
:1025B00090E0DF91CF911F910F91FF90EF900895E0
:1025C000F62E0B8D10E00F5F1F4F0F731127E02EBB
:1025D0008C8D8E110CC00FB607FCFACFE889F989F3
:1025E000808185FFF5CFCE010E947712F1CFEB8D70
:1025F000EC0FFD2FF11DE35AFF4FF0829FB7F894C7
:102600000B8FEA89FB8980818062CFCFCF92DF92E6
:10261000EF92FF921F93CF93DF93EC016A017B014E
:10262000122FE889F98982E08083C11481EED806EF
:10263000E104F104A1F060E079E08DE390E0A7010E
:1026400096010E94D61C2150310941095109569525
:10265000479537952795211580E1380798F0E88947
:10266000F989108260E874E88EE190E0A701960194
:102670000E94D61C215031094109510956954795B0
:1026800037952795EC85FD853083EE85FF85208382
:10269000188EEC89FD891083EA89FB89808188691D
:1026A0008083EA89FB8980818F7D8083DF91CF9150
:1026B0001F91FF90EF90DF90CF9008951F920F929F
:1026C0000FB60F9211240BB60F922F938F939F93F7
:1026D000EF93FF93E091A003F091A1038081E0913B
:1026E000A603F091A70382FD1DC090818091A903EC
:1026F0008F5F8F732091AA03821741F0E091A903A5
:10270000F0E0E057FC4F958F8093A903FF91EF9184
:102710009F918F912F910F900BBE0F900FBE0F9036
:102720001F9018958081F2CF1F920F920FB60F92D3
:1027300011240BB60F922F933F934F935F936F9398
:102740007F938F939F93AF93BF93EF93FF9380E912
:1027500093E00E947712FF91EF91BF91AF919F910B
:102760008F917F916F915F914F913F912F910F903A
:102770000BBE0F900FBE0F901F90189580E993E04D
:102780000E94051221E0892B09F420E0822F089590
:10279000E0E9F3E01382128288EE93E0A0E0B0E07B
:1027A00084839583A683B7838CE492E091838083AE
:1027B00085EC90E09587848784EC90E09787868706
:1027C00080EC90E0918B808B81EC90E0938B828BFE
:1027D00082EC90E0958B848B86EC90E0978B868BD7
:1027E000118E128E138E148E0895AF92BF92CF92D7
:1027F000DF92EF92FF920F931F93CF93DF936C01C1
:102800007B018B01040F151FEB015E01AE18BF08A1
:10281000C017D10759F06991D601ED91FC91019053
:10282000F081E02DC6011995892B79F7C501DF915B
:10283000CF911F910F91FF90EF90DF90CF90BF90BD
:10284000AF900895FB0101900020E9F73197AF01A7
:10285000461B570BDC01ED91FC910280F381E02DCA
:1028600019946AE572E00C9422140F931F93CF938E
:10287000DF938C01D0E0C0E06115710519F00E9472
:102880002214EC01C8010E9431148C0F9D1FDF91AE
:10289000CF911F910F9108954F925F926F927F9207
:1028A0008F929F92AF92BF92CF92DF92EF92FF9260
:1028B0000F931F93CF93DF9300D01F921F92CDB73A
:1028C000DEB78B0129013A01909100028917C9F006
:1028D0009F3F09F4EBC00F900F900F900F900F9057
:1028E000DF91CF911F910F91FF90EF90DF90CF90EC
:1028F000BF90AF909F908F907F906F905F904F9020
:102900000895E0ECF1E024912D8327FDE4CF61E010
:102910000E94A41A2D81222321F08D81823009F09A
:10292000E5C14801B12CA12C60E072E18AE790E09A
:10293000A50198010E94F81C29833A834B835C838C
:1029400069017A0191E0C91AD108E108F1082FEF75
:10295000C216D104E104F10409F00CF4A8C160E44A
:1029600072E48FE090E0A50198010E94F81C6901D3
:102970007A0181E0C81AD108E108F1089D819230FE
:1029800009F0D6C282E02FEFC216D104E104F104AF
:1029900009F00CF46FC060E970ED83E090E0A501F0
:1029A00098010E94F81C69017A0181E0C81AD108D7
:1029B000E108F10883E09FEFC916D104E104F104B6
:1029C00009F00CF457C068E478EE81E090E0A501CE
:1029D00098010E94F81C69017A0181E0C81AD108A7
:1029E000E108F10884E09FEFC916D104E104F10485
:1029F00009F00CF43FC064E274EF80E090E0A501C0
:102A000098010E94F81C69017A0181E0C81AD10876
:102A1000E108F10885E09FEFC916D104E104F10453
:102A200049F140F162E17AE780E090E0A501980188
:102A30000E94F81C69017A0181E0C81AD108E108F6
:102A4000F10886E09FEFC916D104E104F10491F08A
:102A500088F0C980DA80EB80FC808AE0F594E79406
:102A6000D794C7948A95D1F791E0C91AD108E108A3
:102A7000F10887E09091B100987F892B8093B10095
:102A80002FEF3FEFA901411451046104710409F0D3
:102A90001FC19D81923009F4F9C10CF0E0C1992366
:102AA00009F4E5C1913009F44AC115CF80930002C1
:102AB000E0ECF1E094919D839F3F09F40CCF9230BC
:102AC00009F481C060F4992309F437C0913009F406
:102AD00054C097FD00CF61E00E94A41A1ECF2D8143
:102AE000243009F4BEC008F494C0253091F7109248
:102AF0002001109221019091210198609093210171
:102B000090912101916090932101282F30E0F901EB
:102B1000E359FD4FE491F0E0EE0FFF1FE352FD4F4C
:102B20004591549150932F0440932E04F901E95E8E
:102B3000FD4FE491E0932D04EACE14BC15BC94B58E
:102B4000926094BD95B5916095BD282F30E0F90154
:102B5000E359FD4FE491F0E0EE0FFF1FE352FD4F0C
:102B6000459154915093520440935104F901E95E08
:102B7000FD4FE491E0935004CACE10928000109271
:102B800081009091810098609093810090918100E4
:102B9000916090938100282F30E0F901E359FD4FB7
:102BA000E491F0E0EE0FFF1FE352FD4F4591549189
:102BB00050934B0440934A04F901E95EFD4FE491C0
:102BC000E0934904A4CE1092B0001092B10090910D
:102BD000B00092609093B0009091B100916090939A
:102BE000B100282F30E0F901E359FD4FE491F0E006
:102BF000EE0FFF1FE352FD4F459154915093440453
:102C000040934304F901E95EFD4FE491E0934204EF
:102C10007ECE109290001092910090919100986059
:102C20009093910090919100916090939100282F42
:102C300030E0F901E359FD4FE491F0E0EE0FFF1FA2
:102C4000E352FD4F4591549150933D0440933C0411
:102C5000F901E95EFD4FE491E0933B0493E09D832D
:102C600056CE1092A0001092A1009091A100986001
:102C70009093A1009091A10091609093A100282FC2
:102C800030E0F901E359FD4FE491F0E0EE0FFF1F52
:102C9000E352FD4F459154915093360440933504CF
:102CA000F901E95EFD4FE491E093340430CE81E018
:102CB0002D812111DFCE95B5987F892B85BD2FEF12
:102CC0003FEFA901411451046104710409F4CFC01C
:102CD000D801AA0FBB1FA30192010E941F1D28EE5D
:102CE00033E040E050E00E94D61CD3CEB12CA12CA2
:102CF00060E072E18AE790E0A50198010E94F81C6B
:102D000069017A0181E0C81AD108E108F108C1140B
:102D1000D10491E0E906F10424F591E02D81213000
:102D200089F580918100887F892B809381002FEF26
:102D30003FEFA901411451046104710449F6D09296
:102D40008900C092880020934C0430934D04409336
:102D50004E0450934F0480916F00826080936F0007
:102D6000BACD68E478EE81E090E0A50198010E9478
:102D7000F81C69017A0181E0C81AD108E108F1085C
:102D800093E0CCCF8D81833009F580919100887FCD
:102D9000892B809391002FEF3FEFA901411451043B
:102DA0006104710409F094CFD0929900C092980008
:102DB00020933E0430933F044093400450934104D9
:102DC0008091710082608093710085CD2D812430C7
:102DD00009F58091A100887F892B8093A1002FEFB6
:102DE0003FEFA901411451046104710409F070CF4F
:102DF000D092A900C092A8002093370430933804E1
:102E00004093390450933A04809172008260809319
:102E1000720061CD8D81853009F032CE8091210123
:102E2000887F892B809321012FEF3FEFA901411467
:102E300051046104710409F04BCFD0922901C09272
:102E4000280120933004309331044093320450938E
:102E50003304809173008260809373003CCD8D8138
:102E6000843031F20CF4A0CF853039F334CDC7BCB7
:102E700020935304309354044093550450935604C4
:102E800080916E00826080936E0025CDC092B30069
:102E900020934504309346044093470450934804DC
:102EA0008091700082608093700015CD68E478EEA8
:102EB00081E090E0A50194010E94F81C69017A016B
:102EC00091E0C91AD108E108F10883E02FEFC2169A
:102ED000D104E104F10409F00CF4EACE62E17AE7EE
:102EE00080E090E0A50194010E94F81C69017A013C
:102EF00091E0C91AD108E108F10884E02FEFC21669
:102F0000D104E104F10409F008F4D2CEC980DA80DA
:102F1000EB80FC809AE0F594E794D794C7949A9557
:102F2000D1F781E0C81AD108E108F10885E0C0CEE8
:102F30008FEFC816D104E104F10411F00CF0B6CF04
:102F400082E0B6CE8230A9F028F4882349F081309F
:102F500051F00895843021F1E8F0853039F1089579
:102F600010926E00089580916F008D7F80936F00A6
:102F70000895809170008D7F8093700081E0809330
:102F8000B0008091B100887F84608093B10010927E
:102F9000B3000895809171008D7F80937100089532
:102FA000809172008D7F80937200089580917300EC
:102FB0008D7F809373000895CF93C82F8091000276
:102FC000C8130DC0E0ECF1E084919FEF90930002F4
:102FD0000E94A21760E08C2FCF910C94E01A8FEF23
:102FE000F7CF1F920F920FB60F9211240BB60F92CC
:102FF0002F933F934F935F936F937F938F939F9301
:10300000AF93BF93EF93FF93809145049091460453
:10301000A0914704B0914804892B8A2B8B2BE1F1B6
:1030200090914204E0914304F09144048081892707
:1030300080838091450490914604A0914704B0910B
:103040004804181619061A061B069CF480914504BC
:1030500090914604A0914704B09148040197A109BA
:10306000B1098093450490934604A0934704B0931C
:103070004804FF91EF91BF91AF919F918F917F9104
:103080006F915F914F913F912F910F900BBE0F90D9
:103090000FBE0F901F901895809100020E94DC17C0
:1030A000E8CF08950E9420190E9451180E94BF0184
:1030B000C2E4D2E10E9412032097E1F30E9442127F
:1030C000F9CF1F920F920FB60F9211242F933F93B7
:1030D0008F939F93AF93BF9380915C0490915D0415
:1030E000A0915E04B0915F0430915B0423E0230F54
:1030F0002D3768F126E8230F0296A11DB11D2093FC
:103100005B0480935C0490935D04A0935E04B09391
:103110005F048091570490915804A0915904B09194
:103120005A040196A11DB11D809357049093580431
:10313000A0935904B0935A04BF91AF919F918F917E
:103140003F912F910F900FBE0F901F9018950196F1
:10315000A11DB11DD4CF2FB7F89460915C0470917C
:103160005D0480915E0490915F042FBF08953FB786
:10317000F8948091570490915804A0915904B0910B
:103180005A0426B5A89B05C02F3F19F00196A11D32
:10319000B11D3FBFBA2FA92F982F8827BC01CD01A1
:1031A000620F711D811D911D42E0660F771F881F00
:1031B000991F4A95D1F708958F929F92AF92BF922F
:1031C000CF92DF92EF92FF926B017C010E94B718C1
:1031D0004B015C01C114D104E104F104E9F00E9447
:1031E000371B0E94B718681979098A099B09683E3C
:1031F00073408105910570F321E0C21AD108E108FE
:10320000F10888EE880E83E0981EA11CB11CC11441
:10321000D104E104F10429F7FF90EF90DF90CF9003
:10322000BF90AF909F908F9008958230910538F0B5
:10323000880F991F880F991F05970197F1F7089537
:10324000789484B5836084BD85B5836085BDEEE6E2
:10325000F0E0808181608083E1E8F0E082E08083BB
:10326000808181608083E0E8F0E0808181608083FC
:10327000E1EBF0E0808184608083E0EBF0E080812E
:1032800081608083E1E9F0E0808183608083E0E910
:10329000F0E0808181608083E1EAF0E080818360FA
:1032A0008083E0EAF0E0808181608083E1E2F1E008
:1032B000808183608083E0E2F1E0808181608083AF
:1032C00087E880937A001092C10008951F93CF93EE
:1032D000DF93182FEB0161E00E94A41A209739F4C4
:1032E00060E0812FDF91CF911F910C94E01ACF3FC6
:1032F000D10511F461E0F5CFE12FF0E0EF53FE4F7F
:10330000E491E250E23108F0B3C0F0E08827E457DE
:10331000F64E8F4F0C94171D9E19A619AB19B519AF
:10332000BF19381AC919D119D919E319ED19F719A3
:10333000061A101A381A1A1A241A2E1A84B5806816
:1033400084BDC7BDDF91CF911F91089584B5806280
:1033500084BDC8BDF7CF80918000806880938000D5
:10336000D0938900C0938800EDCF80918000806267
:1033700080938000D0938B00C0938A00E3CF80912C
:103380008000886080938000D0938D00C0938C0073
:10339000D9CF8091B00080688093B000C093B30013
:1033A000D1CF8091B00080628093B000C093B40010
:1033B000C9CF80919000806880939000D09399004D
:1033C000C0939800BFCF809190008062809390005E
:1033D000D0939B00C0939A00B5CF809190008860F5
:1033E00080939000D0939D00C0939C00ABCF8091C0
:1033F000A00080688093A0008091A0008F7B8093C4
:10340000A000D093A900C093A8009CCF8091A000F9
:1034100080628093A000D093AB00C093AA0092CFAB
:103420008091A00088608093A000D093AD00C093ED
:10343000AC0088CF80912001806880932001D093D8
:103440002901C09328017ECF809120018062809362
:103450002001D0932B01C0932A0174CF80912001C9
:10346000886080932001D0932D01C0932C016ACFF6
:10347000C038D1050CF03ECF33CF8250823108F0F6
:103480005FC0E82FF0E08827E75BF54E8F4F0C9484
:10349000171D9D1AA11A5B1A611A651AA01A691ADA
:1034A0006F1A731A791A7D1A811A871A8B1AA01A41
:1034B0008F1A951A991A809180008F7780938000D7
:1034C0000895809180008F7DF9CF80918000877F63
:1034D000F5CF8091B0008F778093B00008958091F0
:1034E000B0008F7DF9CF809190008F77809390000E
:1034F0000895809190008F7DF9CF80919000877F13
:10350000F5CF8091A0008F778093A00008958091DF
:10351000A0008F7DF9CF8091A000877FF5CF8091AB
:1035200020018F77809320010895809120018F7D65
:10353000F9CF80912001877FF5CF84B58F7784BD47
:10354000089584B58F7DFBCFCF93DF9390E0FC018E
:10355000E95EFD4F249183599D4FFC01849188239E
:10356000C9F090E0880F991FFC01E950FD4FA5912B
:10357000B491FC01E352FD4FC591D49161110DC08E
:103580009FB7F8948C91209582238C93888128236F
:1035900028839FBFDF91CF910895623051F49FB788
:1035A000F8943C91822F809583238C93E8812E2B75
:1035B000EFCF8FB7F894EC912E2B2C938FBFEACFDF
:1035C0001F93CF93DF93282F30E0F901EF53FE4F85
:1035D0008491F901E95EFD4FD491F901E359FD4F62
:1035E000C491CC23A9F0162F81110E943D1AEC2F13
:1035F000F0E0EE0FFF1FE352FD4FA591B4918FB79E
:10360000F894EC91111108C0D095DE23DC938FBFA4
:10361000DF91CF911F910895DE2BF8CFCF93DF93E9
:10362000282F30E0F901EF53FE4F8491F901E95E54
:10363000FD4FD491F901E359FD4FC491CC23A1F082
:1036400081110E943D1AEC2FF0E0EE0FFF1FED53A9
:10365000FD4FA591B491EC91ED2381E090E009F448
:1036600080E0DF91CF91089580E090E0FACF089557
:103670005058BB27AA270E94501B0C942F1C0E9455
:10368000211C38F00E94281C20F039F49F3F19F4C7
:1036900026F40C941E1C0EF4E095E7FB0C94181C09
:1036A000E92F0E94401C58F3BA176207730784077A
:1036B000950720F079F4A6F50C94621C0EF4E095C1
:1036C0000B2EBA2FA02D0B01B90190010C01CA01DC
:1036D000A0011124FF27591B99F0593F50F4503E87
:1036E00068F11A16F040A22F232F342F4427585F79
:1036F000F3CF469537952795A795F0405395C9F791
:103700007EF41F16BA0B620B730B840BBAF0915048
:10371000A1F0FF0FBB1F661F771F881FC2F70EC0E7
:10372000BA0F621F731F841F48F4879577956795BA
:10373000B795F7959E3F08F0B0CF9395880F08F0A6
:103740009927EE0F9795879508950E94AC1B689472
:10375000B1110C94631C08950E94481C88F09F5777
:1037600098F0B92F9927B751B0F0E1F0660F771FA5
:10377000881F991F1AF0BA95C9F714C0B13091F09B
:103780000E94621CB1E008950C94621C672F782F90
:103790008827B85F39F0B93FCCF386957795679560
:1037A000B395D9F73EF490958095709561957F4FCC
:1037B0008F4F9F4F0895E89409C097FB3EF4909572
:1037C0008095709561957F4F8F4F9F4F9923A9F0FA
:1037D000F92F96E9BB279395F69587957795679589
:1037E000B795F111F8CFFAF4BB0F11F460FF1BC0CD
:1037F0006F5F7F4F8F4F9F4F16C0882311F096E960
:1038000011C0772321F09EE8872F762F05C066230D
:1038100071F096E8862F70E060E02AF09A95660FC6
:10382000771F881FDAF7880F9695879597F908957F
:1038300097F99F6780E870E060E008959FEF80EC63
:10384000089500240A941616170618060906089506
:1038500000240A9412161306140605060895092E6C
:103860000394000C11F4882352F0BB0F40F4BF2BDB
:1038700011F460FF04C06F5F7F4F8F4F9F4F08951B
:1038800057FD9058440F551F59F05F3F71F0479511
:10389000880F97FB991F61F09F3F79F087950895F6
:1038A000121613061406551FF2CF4695F1DF08C015
:1038B000161617061806991FF1CF86957105610532
:1038C00008940895E894BB2766277727CB0197F9DA
:1038D00008950E947C1C0C942F1C0E94211C38F01F
:1038E0000E94281C20F0952311F00C94181C0C94B5
:1038F0001E1C11240C94631C0E94401C70F3959FA5
:10390000C1F3950F50E0551F629FF001729FBB27D6
:10391000F00DB11D639FAA27F00DB11DAA1F649F72
:103920006627B00DA11D661F829F2227B00DA11D25
:10393000621F739FB00DA11D621F839FA00D611DAB
:10394000221F749F3327A00D611D231F849F600DCC
:10395000211D822F762F6A2F11249F5750409AF0F5
:10396000F1F088234AF0EE0FFF1FBB1F661F771F81
:10397000881F91505040A9F79E3F510580F00C944C
:10398000181C0C94631C5F3FE4F3983ED4F38695B7
:1039900077956795B795F795E7959F5FC1F7FE2BEC
:1039A000880F911D9695879597F90895A1E21A2E93
:1039B000AA1BBB1BFD010DC0AA1FBB1FEE1FFF1FD3
:1039C000A217B307E407F50720F0A21BB30BE40B23
:1039D000F50B661F771F881F991F1A9469F760956A
:1039E0007095809590959B01AC01BD01CF01089524
:1039F000052E97FB1EF400940E940F1D57FD07D063
:103A00000E94D61C07FC03D04EF40C940F1D509559
:103A10004095309521953F4F4F4F5F4F08959095BA
:103A20008095709561957F4F8F4F9F4F0895EE0F52
:103A3000FF1F881F8BBF0790F691E02D19940E94FD
:103A40002A1DA59F900DB49F900DA49F800D911DE0
:103A500011240895A29FB001B39FC001A39F700DD0
:103A6000811D1124911DB29F700D811D1124911D86
:063A70000895F894FFCF59
:103A7600FF30300030310030320030330030340057
:103A860030350030360030370030380030390031FC
:103A960030003131003132006164647265737365E0
:103AA60073207365740000000000C706F6066406FE
:103AB600900667066E06810600000000B912F5132F
:0E3AC6003312991205121F1211120D0A000080
:00000001FF
